:020000040000FA
:0400000007EF00F016
:1000080063828EED02F04FEF03F0800E196E960EAC
:100018001A6E980E1B6E000E1C6E20EE03F0275011
:10002800D9262850DA22DECF29F0DECF2AF0DECF1B
:100038002BF0DECF2CF0060ED89029362A362B3638
:100048002C36E82E20EF00F029C01DF02AC01EF043
:100058002BC01FF02CC020F008EC02F019502F6EB6
:10006800800E196E960E1A6E980E1B6E000E1C6E80
:1000780020EE03F02750D9262850DA22DECF29F0C7
:10008800DECF2AF0DECF2BF0DECF2CF0040ED89096
:1000980029362A362B362C36E82E4BEF00F029C0AD
:1000A8001DF02AC01EF02BC01FF02CC020F008EC59
:1000B80002F01950306E800E196E960E1A6E980E58
:1000C8001B6E000E1C6E20EE03F02750D926285018
:1000D800DA22DECF29F0DECF2AF0DECF2BF0DECF1A
:1000E8002CF0020ED89029362A362B362C36E82EDC
:1000F80076EF00F029C01DF02AC01EF02BC01FF0BB
:100108002CC020F008EC02F01950316E20EE03F0FC
:100118002750D9262850DA22DF50296E800E196E12
:10012800960E1A6E980E1B6E000E1C6E2F50400D08
:10013800F3CF2AF0F4CF2BF02AC01DF02BC01EF00D
:10014800000E1EBEFF0E1F6E206E08EC02F0295036
:10015800195C2D6E20EE03F02750D9262850DA229C
:10016800DF50296E800E196E960E1A6E980E1B6E51
:10017800000E1C6E3050100DF3CF2AF0F4CF2BF088
:100188002AC01DF02BC01EF0000E1EBEFF0E1F6EF3
:10019800206E08EC02F02950195C326E20EE03F054
:1001A8002750D9262850DA22DF50296E800E196E82
:1001B800960E1A6E980E1B6E000E1C6E3150040DB2
:1001C800F3CF2AF0F4CF2BF02AC01DF02BC01EF07D
:1001D800000E1EBEFF0E1F6E206E08EC02F02950A6
:1001E800195C2E6E2DC033F0B896AC942F04AF6E08
:1001F8003350325CD8B003EF01F005EF01F00BEF9C
:1002080001F032C033F0B896AC843004AF6E33508E
:100218002E5CD8B012EF01F014EF01F018EF01F0E6
:10022800B886AC843104AF6E20EE02F02750D92690
:100238002850DA22DF50296E293AAC502918EF0BE2
:100248002918AC6EAB8E20EE01F02750D926285025
:10025800DA22DE04D8A433EF01F035EF01F039EFEC
:1002680001F0AC8CAB8C3BEF01F0AC9CAB9CAC8A46
:10027800AB889D8A120001C0D9FF02C0DAFFDECF29
:1002880003F0DECF04F0DECF05F0DECF06F0DECFE0
:1002980007F0DECF08F0DECF09F0DECF0AF04450D9
:1002A800035C0B6E455004580C6E465005580D6E95
:1002B800475006580E6E485007580F6E4950085858
:1002C800106E4A500958116E4B500A58126E12504F
:1002D800111010100F100E100D100C1009E1050E62
:1002E8000B5CD8A07AEF01F07CEF01F0A3EF01F0EE
:1002F8008150010A8A6E01C0D9FF02C0DAFFDECF41
:1003080003F0DECF04F0DECF05F0DECF06F0DECF5F
:1003180007F0DECF08F0DECF09F0DECF0AF003C029
:1003280044F004C045F005C046F006C047F007C0D9
:1003380048F008C049F009C04AF00AC04BF001C0B3
:10034800D9FF02C0DAFFDECF03F0DECF04F0DECF44
:1003580005F0DECF06F0DECF07F0DECF08F0DECF07
:1003680009F0DECF0AF03C50035C0B6E3D50045898
:100378000C6E3E5005580D6E3F5006580E6E40509C
:1003880007580F6E41500858106E42500958116EA8
:1003980043500A58126E1250111010100F100E1000
:1003A8000D100C1009E10A0E0B5CD8A0DEEF01F06D
:1003B800E0EF01F007EF02F08150020A8A6E01C0F7
:1003C800D9FF02C0DAFFDECF03F0DECF04F0DECFC4
:1003D80005F0DECF06F0DECF07F0DECF08F0DECF87
:1003E80009F0DECF0AF003C03CF004C03DF005C0C0
:1003F8003EF006C03FF007C040F008C041F009C019
:1004080042F00AC043F01200000E226E20BE11EF27
:1004180002F00FEF02F01BEF02F0201E1F1E1E1E3F
:100428001D6C000E1E221F222022010E226E1CBEF1
:1004380022EF02F020EF02F02CEF02F01C1E1B1E30
:100448001A1E196C000E1A221B221C22010E221AD7
:10045800000E236E000E246E000E256E000E266E12
:100468001D501E101F102010D8B43DEF02F03FEFB2
:1004780002F075EF02F0010E216E49EF02F0D890FC
:100488001D361E361F362036212A20AE4EEF02F0CA
:1004980050EF02F043EF02F0D89023362436253689
:1004A80026361D50195C1E501A581F501B582050D4
:1004B8001C58D8A062EF02F064EF02F06DEF02F072
:1004C8001D50195E1E501A5A1F501B5A20501C5A94
:1004D8002380D89020321F321E321D32212E50EF39
:1004E80002F02250D8B47BEF02F07DEF02F085EFE6
:1004F80002F0261E251E241E236C000E242225220F
:10050800262223C019F024C01AF025C01BF026C0EB
:100518001CF012000600FACF15F0FBCF16F0D9CF69
:1005280017F0DACF18F0F2A49CEF02F09EEF02F079
:10053800B3EF02F0010E4F26000E50225122522234
:1005480053225422552256224F0E136E000E146E5B
:100558007FEC03F0850ED76EEE0ED66EF2949EAA4F
:10056800B8EF02F0BAEF02F0D8EF02F0A0EC03F017
:100578004E6E410E4E18D8A4C4EF02F0C6EF02F03A
:10058800CBEF02F0815004098A6ED7EF02F0440ED7
:100598004E18D8A4D2EF02F0D4EF02F0D7EF02F051
:1005A8008150FB0B8A6E9E9A18C0DAFF17C0D9FFDC
:1005B80016C0FBFF15C0FAFF63921100D59E19C043
:1005C800D9FF1AC0DAFFDF501B6E1B3A1B461B46C9
:1005D800D5501B18BF0B1B18D56E20EE01F0195013
:1005E800D9261A50DA22DF501B6E1B3A1B46D5500B
:1005F8001B18DF0B1B18D56E20EE03F01950D926F7
:100608001A50DA22DF501B6E1B461B461B46D5507C
:100618001B18F70B1B18D56ED530E832E832010BE2
:100628000009D8A41AEF03F01CEF03F029EF03F038
:1006380020EE04F01950D9261A50DA22DF501B6E2A
:10064800D5501B18F80B1B18D56EF28AF184850E4D
:10065800D76EEE0ED66ED58E1200000E196E000EF5
:100668001A6E6CEC03F09CEC03F0570E276E000E2C
:10067800286E09EC00F05E0E196E000E1A6EE2ECA0
:1006880002F07E0E196E020E1A6E97EC03F04BEF15
:1006980003F007EF00F0220EF66E070EF76E000E5D
:1006A800F86E00EE57F010EE0CF00900F5CFEEFFF3
:1006B800E550E150FAE100EE34F0230EEE6AE80668
:1006C800FDE163906392000EF86E000131EF03F0D4
:1006D8009350FE0B936E9350FD0B936E9350FB0B50
:1006E800936E8150FE0B8A6E815002098A6E81508A
:1006F80004098A6E120013C001F014C002F002D877
:1007080090EF03F00500FA6E4C50FD6E4D50FE6EF2
:10071800F850FF6EFA501200120000000080250009
:1007280000000000000219C04CF01AC04DF0120081
:0C073800D08EF28EF28C1200AE50120037
:020000040020DA
:08000000FFFFFFFFFFFFFFFF00
:020000040030CA
:0E000000FF021F1EFF0181FF0FC00FE00F4027
:00000001FF
